:020000040800F2
:10000000980700204D02000815170008AD160008DB
:10001000111700087F130008E52200080000000007
:10002000000000000000000000000000F1180008BF
:100030008313000800000000A5170008491A0008F3
:1000400067020008670200086702000867020008EC
:1000500067020008670200088513000867020008AD
:100060009D130008D9130008151400086702000842
:1000700067020008670200086702000867020008BC
:1000800067020008670200086702000867020008AC
:10009000670200086702000867020008670200089C
:1000A000670200086702000867020008670200088C
:1000B0006702000867020008D91A000867020008F2
:1000C000670200086702000867020008670200086C
:1000D00067020008291F00083D1F0008670200088A
:1000E000670200086702000867020008670200084C
:1000F00067020008F91A0008670200086702000892
:10010000670200086702000867020008670200082B
:10011000670200086702000867020008670200081B
:10012000670200086702000867020008670200080B
:1001300067020008670200086702000867020008FB
:1001400067020008670200086702000867020008EB
:1001500067020008670200086702000867020008DB
:1001600067020008670200086702000867020008CB
:1001700067020008670200086702000867020008BB
:10018000670200086702000800F002F800F04FF86C
:100190000AA090E8000C82448344AAF10107DA45E2
:1001A00001D100F044F8AFF2090EBAE80F0013F0E5
:1001B000010F18BFFB1A43F0010318472C3400004D
:1001C0004C340000103A24BF78C878C1FAD85207DE
:1001D00024BF30C830C144BF04680C6070470000C1
:1001E0000023002400250026103A28BF78C1FBD840
:1001F000520728BF30C148BF0B607047662903F023
:10020000A681642900F0AE80632900F05B830020A2
:1002100070471FB503F091F900F072FB0400002055
:10022000002102F011FFE0601FBD10B510BD00F00D
:100230007FFC1146FFF7EDFF02F060FA00F09DFC35
:1002400003B4FFF7F2FF03BC02F066F809488047E9
:1002500009480047FEE7FEE7FEE7FEE7FEE7FEE7A8
:10026000FEE7FEE7FEE7FEE704480549054A064BC0
:10027000704700004D1A000889010008980100200D
:100280009807002098030020980300207047000082
:100290000FB4044910B503AA029800F01FFB10BC6C
:1002A0005DF814FB4C0000202DE9F0410E46044699
:1002B000002020622046E168884730B3252805D019
:1002C000D4E901219047206A401CF2E7E16820460A
:1002D00000278847050018D0A5F14100192802D849
:1002E00020354FF400673246294620462760FFF745
:1002F00085FF40B1012804D0F61D26F00706083618
:10030000D8E7361DD6E72846DAE7206ABDE8F0814F
:1003100070B50C460546012A05D02878800600D520
:10032000EA69002302E0012305E05B1C934202D24C
:10033000E05C0028F9D1A869E618C01AA861286A0B
:10034000184428622846AFF3008004E0D5E9012173
:1003500014F8010B9047B442F8D32846AFF300805D
:1003600070BD00002DE9F041064600241068752993
:10037000314616A510D0AFF30080002802DA4042C3
:1003800013A507E031688A0701D512A502E04907E5
:1003900004D511A5012401E0AFF3008000210A2259
:1003A00006F1240709E0B0FBF2FCB0FBF2F302FB1C
:1003B0001C00303078541846491C0028F3D12346DD
:1003C0002A463046BDE8F04100F00CB800000000BD
:1003D0002D0000002B000000200000007047704737
:1003E000704770472DE9F0470D46994692460446FE
:1003F00000F124080168880604D5E06921F01001A5
:10040000216000E00120A84201DD471B00E0002739
:10041000A1697A1902EB0900081AA0612078C006C8
:1004200002D42046AFF30080002608E0D4E9012181
:100430001AF806009047206A401C761C20624E4540
:10044000F4DB2078C0060AD52046AFF3008006E032
:10045000D4E9012130209047206A401C2062381ED8
:10046000A7F10107F4DC07E0D4E9012118F8050041
:100470009047206A401C2062281EA5F10105F3DC8C
:100480002046AFF300802078000602D50220BDE8A8
:10049000F0870120FBE770472DE9FF4F0C461E4611
:1004A0004FF0FF378BB0D2E90001DDF860800A9091
:1004B0008A46C1F30A5505B93D46002108464FF06A
:1004C0000000BAF1000F00F4400005DA00EB8000F4
:1004D0004FF4400101EA50004FEA9059B9F1010F81
:1004E00000DDB9460A9850EA4A000ED044F6105092
:1004F000A5F2FF3545432F14B8F1000F1ED0754209
:10050000291E1EDDC9F100021CE0B8F1010F4FF0F9
:10051000000001D0302103E0F24305E02154401CEB
:10052000B042FBDB30460022002121540B99C1F878
:100530000880C1E900200FB0BDE8F08FBD1B6D1C25
:10054000DEE74A4600DA694206A800F07BFA06AB0D
:1005500093E8070003AB83E8070050460A9900F0D0
:1005600053FB8DE80700A0F500501F38009003985A
:10057000002D09DD42F21F014A46084403A90390F9
:10058000684600F0B2FD08E0A0F500504A461F386A
:1005900003A90390684600F0BCFD8DE80700000445
:1005A000000C03D04FF0FF30410800E01046B8F1D6
:1005B000000F03D00022009215461EE0751E05D4E0
:1005C00000F0A2F9303262556D1EF9D5B346012212
:1005D000084302D000227F1C04E02078302801D19B
:1005E00000227F1E002A099786D01DE0112D07DA10
:1005F00000F08AF9303262556D1C50EA0102F5D1E3
:10060000084302D00098C8B10EE00021681E05E042
:10061000235C625C63542254401E491C8142F7DB18
:10062000AB46A81B401E0990002004F80B000B9855
:10063000099AC0F80880C0E9002B7CE711264FF02A
:10064000000859E72DE9F04F88460446D21D22F0F4
:10065000070191B0D1E90001CDE90A0101F044FEA2
:1006600002460B98C00F01D02D2007E020688107BB
:1006700001D52B2002E0202101EAC000032A0990C5
:1006800001D0072A05DB03464146204600F09AF9CF
:100690000BE12078800601D5E06900E00620B8F182
:1006A000650F814606D0B8F1660F18D0B8F1670F14
:1006B00070D131E00020B9F1110F009001DB11235E
:1006C00001E009F101030AAA01A90CA8FFF7E4FE61
:1006D000DDE90C70002609F10105834647E00120A1
:1006E0004B4600904FF000470AAA01A90CA8FFF75B
:1006F000D3FEDDE90DB00C995D46002610B909F175
:1007000001000D18B9EB050003D4C0F1FF3609F163
:100710000105A5EB09002BE0B9F1010F01DA4FF05B
:1007200001090020B9F1110F0090484601DD1123A5
:1007300000E003460AAA01A90CA8FFF7ADFEDDE917
:100740000C704D4600268346207800070AD4AB453E
:1007500000DA5D4601A8012D04DD411911F8011CE4
:10076000302907D04F4502DA17F1040F04DA0120CF
:1007700082460FE06D1EEEE7002F02DCED1B3E44CB
:1007800003E0781CA84200DD7D1CB81B00F1010AC3
:100790004FF000472078000703D4AA4501DB4FF053
:1007A000FF3A0021B7F1004F0DF143088DF84310D7
:1007B00024D002202B23002F01DA7F422D230A218F
:1007C000021EA0F1010000DC5FB197FBF1FC97FB7A
:1007D000F1F201FB1C7C17460CF1300C08F801CD3E
:1007E000EEE7A8F1010003702188090501D5452134
:1007F00000E06521A0F1010800F8011C09980FA98B
:10080000A1EB0807FF1D00B10120411901EBEA70BF
:10081000A1693844081A401EA0612078C00602D49D
:100820002046AFF30080099828B1D4E90121904710
:10083000206A401C20622078C00622D52046AFF3F3
:1008400000801EE0002E04DBB34502DD01A8805DC0
:1008500000E03020D4E901219047206A401C20624A
:10086000761CAAF101005FEA000A0AD100F048F8FC
:10087000C0680168405CD4E901219047206A401CAF
:100880002062281EA5F10105DCDC07E0D4E9012186
:1008900018F8010B9047206A401C2062381EA7F10F
:1008A0000107F3DC2046AFF30080032011B043E6DC
:1008B00010B5436913B1AFF3008001E0FFF728FDE5
:1008C000012010BD127800F124010A7000224A7044
:1008D0000122EDE711684FF0FF32E9E7074B70B5F1
:1008E0000D467B4400F05BF80446284600F018F9FA
:1008F00010B14FF0FF3070BD204670BD7B1B000073
:10090000004870475801002030B5B0F10A024FEAA4
:10091000900E71F100034EEA817EB0EB0E0061EBA8
:1009200091014FEA101E4EEA017E10EB0E0041EBE2
:1009300011114FEA102E4EEA016E10EB0E0041EB42
:1009400011214FEA104E4EEA014E10EB0E0041EB22
:100950001141401841F100014FEAD00040EA4170D6
:100960004FEAD10110EB80054FEA810444EA90740C
:1009700044EB01046D1944EB0404521BA3414FF0F6
:10098000000348BF0A3200D530BD401C41F10001D0
:1009900030BD000001694A1C02610878704700B54B
:1009A0008FB0CDE901310021059105497944CDE9A8
:1009B000031011466846FFF777FC0FB000BD00003A
:1009C000E5FFFFFF2DE9F0411F46044603260168BD
:1009D000072A01F4006004DB08B116A505E016A59E
:1009E00003E008B115A500E015A521F01000206076
:1009F000A069C01EA0610FB1401EA0612046AFF3E8
:100A000000804FB1D4E9012138469047206A401C4C
:100A10002062C01C206206E0206AFAE7D4E90121C6
:100A200015F8010B9047761EF8D22046AFF30080F0
:100A3000BDE8F0814E414E006E616E00494E4600A9
:100A4000696E66002DE9F047814616468AB0334844
:100A500078440DC88DE80D0030487844801C03AC04
:100A60000DC884E80D0041F69B300844372190FB07
:100A7000F1F290FBF1F5A5F1800501FB12041B3C9E
:100A800002D56442012000E00020DFF890A08046FB
:100A90000027FA44AAF1BE0A0DE0E00709D0324669
:100AA000684607EB47010AEB810100F032FB8DE855
:100AB000070064107F1C002CEFD1184F7F44AC3F1F
:100AC00018E0E80714D007EB04100DF1180A90E8BD
:100AD0000E008AE80E00C068F04201D19819089013
:100AE000324606A903A800F014FB03AB83E8070015
:100AF0006D10641C002DE4D132466946B8F1000F38
:100B000003A802D000F0F1FA01E000F002FBC9E90D
:100B10000001C9F808200AB0BDE8F0877C2B00006E
:100B2000007B00F0800070470048704738010020CB
:100B30007546FFF7F9FFAE4605006946534620F0BB
:100B40000700854618B020B5FFF78EFBBDE82040B2
:100B50004FF000064FF000074FF000084FF0000B79
:100B600021F00701AC46ACE8C009ACE8C009ACE82C
:100B7000C009ACE8C0098D4670470446AFF3008059
:100B80002046FFF75DFB00004FF0013C50F8042BBE
:100B900051F8043B9A4221D1A2EB0C03934313EA90
:100BA000CC1317D150F8042B51F8043B9A4215D1BD
:100BB000A2EB0C03934313EACC130BD150F8042B94
:100BC00051F8043B9A4209D1A2EB0C03934313EA78
:100BD000CC13DBD04FF00000704700BFD01A01BA31
:100BE000B1FA81F101F0180122FA01F0CB40C1F114
:100BF0002001DBB2C0B2C01A2CFA01F3D11A914322
:100C000011EAC311E6D170475FEA400C08BF91F0CA
:100C1000000F4FEA8C234FEAC12243EA51514FEAB9
:100C20001C5018BF00F5F0404FEA300018BF41F0EB
:100C300000415FEA6C5C00F02980BCF1FF3F08BF17
:100C400040F080407047130C06BF12044FF0100CA8
:100C50004FF0000C130E04BF12020CF1080C130F1E
:100C600004BF12010CF1040C930F04BF92000CF1AD
:100C7000020CD30F04BF52000CF1010C11464FF0CF
:100C80000002A0F11F00A0EB0C00704711F0004F14
:100C900008BF704731F000413FF4D5AF0B0C06BFE1
:100CA00009044FF0100C4FF0000C0B0E04BF0902AA
:100CB0000CF1080C0B0F04BF09010CF1040C8B0F95
:100CC00004BF89000CF1020CCB0F04BF49000CF1EA
:100CD000010CCCF12003A0EB0C0022FA03F302FA82
:100CE0000CF241EA030100F10100704720F07F4C53
:100CF00080EA030023F07F47ACEB070303F57C5346
:100D000000F0004003F1FF032DE980494FEA154B45
:100D100009B44FEA144325EA0B4E24EA03480FF2C4
:100D2000042606EB132749083E785FEA320203FBEC
:100D30000667C7F5000707FB06F64FEA54374FEA88
:100D4000D64606F1020607FB066CCCF1005C4FEAC2
:100D50001C472CEA074C07FB06F40CFB06F504EBDA
:100D600015464FEA961634BF00204FF000404FEA78
:100D7000D13706FB07FC4FEA1C4C0CFB0BF7D21BD0
:100D800003FB0CF761EB07010CFB0EF7B0EB074020
:100D900072EB17420CFB08F734BFA2EB0742B2EB31
:100DA000074261EB17414FEA0C444FEA910706FBFB
:100DB00007FC4FEA1C4C0CFB0BF7B0EBC74072EB87
:100DC000573203FB0CF734BFA2EBC742B2EBC7426A
:100DD00061EB57310CFB0EF7B0EBC70072EB5772AB
:100DE0000CFB08F734BFA2EBC702B2EBC70261EB02
:100DF0005771039F4FEA816141EA921104EBCC04E1
:100E00004FEAD1374FEA826206FB07FC42EA9012B2
:100E10004FEA80604FEA1C4C0CFB0BF7D21B03FB24
:100E20000CF761EB07010CFB0EF7B0EB074072EB20
:100E300017420CFB08F734BFA2EB0742B2EB0742A4
:100E400061EB17414FEA8C554FEA910704EB9C2464
:100E500006FB07FC4FEA1C4C0CFB0BF7B0EBC74042
:100E600072EB573203FB0CF734BFA2EBC742B2EB75
:100E7000C74261EB57310CFB0EF7B0EBC70072EBCA
:100E800057720CFB08F734BFA2EBC702B2EBC702E4
:100E900061EB577115EB4C254FEA816141EA9211E4
:100EA0004FEA82624FEAD13742EA901206FB07FC12
:100EB00044F100044FEA80604FEA1C4C0CFB0BF736
:100EC000D21B03FB0CF761EB07010CFB0EF7B0EB39
:100ED000074072EB17420CFB08F734BFA2EB074246
:100EE000B2EB074261EB174115EB1C154FEA81315C
:100EF00041EA92414FEA823242EA90424FEA803020
:100F00004FEA0C7644F1000448EA03434EEA0B48EA
:100F10004FF0000EB2EB080C71EB030724BF6246E2
:100F200039464EEB0E0E4FF0000B0018524149416E
:100F30004BEB0B0BB2EB080C71EB03077BF1000BD7
:100F400024BF624639464EEB0E0E4FF0000B0018E0
:100F5000524149414BEB0B0BB2EB080C71EB030711
:100F60007BF1000B24BF624639464EEB0E0E51EA70
:100F7000020718BF46F0010616EB0E7655F1000287
:100F800054F1000103D5BDE88901BDE80088BDE842
:100F90008901BDE80048B619524141EB0101A3F1B6
:100FA0000103704780807F7E7D7C7B7A79787776BD
:100FB00076757473727171706F6E6E6D6C6C6B6A36
:100FC0006A696868676666656464636362616160D4
:100FD000605F5F5E5E5D5D5C5C5B5B5A5A59595851
:100FE00058575756565555555454535352525251BB
:100FF000515050504F4F4F4E4E4D4D4D4C4C4C4B11
:101000004B4B4A4A4A494949484848474747474657
:101010004646454545444444444343434342424293
:1010200042414141002B26D4770021D01CB54FEA24
:10103000370703B44FF010004FF010014FF00000DD
:101040000FBCBDE810400BF1010BBBF1010F08BF55
:101050005FEA170722BF12F1010211F101014FF0FF
:10106000004143F1000300F0004043EA00007047F4
:10107000F9D35708DAE746EA064613F1400F4FEA7C
:1010800016461FDD13F1200FDFBF16430A4600216D
:1010900020335B42C8D0C3F1200746EA064602FA75
:1010A00007F74FEA164646EA0706C3F1200722FA79
:1010B00003F201FA07F721FA03F14FF0000342EAC5
:1010C0000702B1E746EA020646EA06464FEA164636
:1010D00046EA0106BCBF46EA0646360C4FF000035E
:1010E0004FF000024FF000019EE72DE9C048934603
:1010F00030B491E8380007C831EA400C48BF34EA00
:10110000430C03D5FFF7F2FDFFF78CFFF0BCBDE801
:1011100000882DE9C048934630B491E8380007C8EC
:1011200010F0804F08BF13F0804F03D100F005F896
:10113000FFF778FFF0BCBDE8008820F07F4780EA29
:10114000030023F07F4C07EB0C03A3F57C5300F066
:101150000040A3F1FE0392F0000F00F0B38095F081
:10116000000F00F077802DE901494FEA11404FEA66
:10117000144621EA004800FB06FC24EA064708FB67
:1011800006F607FB08F800FB07F718EB06484CEBE0
:10119000164C4FEA124B18EB07484FEA15464CEB3A
:1011A000174022EA0B4E0BFB06FC25EA06470EFB16
:1011B00006F607FB0EFE0BFB07F71EEB064E4CEB8D
:1011C000164C4FF000061EEB074E4CEB174B18EB7E
:1011D0000B0840F1000018EB0E0B58EB000840F133
:1011E00000008F1A4FF000013CBFC943661B14BFBB
:1011F000B5EB040C00213CBFC943F61B4FEA174472
:101200004EEA8E0E27EA04454FEA1C4704FB0762AC
:101210002CEA074C05FB07F70CFB05F604FB0CFC5E
:1012200016EB074642EB174216EB0C4642EB1C420C
:101230001BEB060658EB0202414146EA9E0601D529
:10124000BDE80189B619524141EB0101A3F1010347
:10125000BDE801894FEA14454FEA114724EA0546E3
:1012600021EA074C05FB07F406FB07F70CFB06F128
:1012700005FB0CFC11EB074144EB17444FEA124706
:1012800011EB0C4144EB1C4422EA074C05FB07F22E
:1012900006FB07F70CFB06F605FB0CFC16EB0746F6
:1012A00042EB174216EB0C4642EB1C456A1854F110
:1012B000000148BF7047B619524141EB0101A3F14B
:1012C0000103704795F0000F37D04FEA11424FEA03
:1012D000144721EA024624EA074C02FB07F106FB09
:1012E00007F70CFB06F402FB0CFC14EB074441EB84
:1012F00017414FEA154714EB0C4441EB1C4125EA1A
:10130000074C02FB07F506FB07F70CFB06F602FB92
:101310000CFC16EB074645EB174516EB0C4645EB68
:101320001C42121951F1000148BF7047B6195241D1
:1013300041EB0101A3F1010370474FEA14454FEA65
:10134000114724EA054621EA074C05FB07F106FB95
:1013500007F70CFB06F24FF0000605FB0CFC12EB46
:10136000074241EB174112EB0C4251EB1C4148BFC5
:101370007047921841EB0101A3F10103704700BFD0
:10138000FEE7704710B504480078C0430249087072
:10139000012000F05DF810BD4800002010B54FF4AA
:1013A00080710A4800F011F93C2000F0D9FF08488C
:1013B0000068C0430749C1F8A8024FF48071034890
:1013C00000F001F9042000F043F810BD00140240C1
:1013D000A88242420080424210B54FF480710A4810
:1013E00000F0F3F83C2000F0BBFF08480068C04361
:1013F0000749C1F8B4024FF48071034800F0E3F8E4
:10140000082000F025F810BD00140240B40242424A
:101410000000424210B54FF480710A4800F0D5F840
:101420001E2000F09DFF08480068C0430749C1F82E
:10143000B8024FF48071034800F0C5F8102000F0A6
:1014400007F810BD00140240B802424200004242B8
:101450000149086070470000143C01400021234905
:101460008279002A3AD00A46126803689A430B46EA
:101470001A600A1D126803689A430B1D1A600279EC
:1014800011440A6803681A430A60184A083212684D
:1014900003689A43154B08331A601A1D12680368D3
:1014A0009A43124B0C331A604279102A0ED11A1F3C
:1014B000126803681A430D4B08331A601A1D12682C
:1014C00003681A43094B0C331A600DE0074942794F
:1014D00011440A6803681A430A6005E0027911445E
:1014E0000A6803689A430A6070470000003C0140A4
:1014F000F0B50A4600210023002400BF3DE001258D
:1015000005FA01F3156805EA03049C4234D1056825
:101510004F000326BE40B543056015794E00B54027
:101520000668354305601579012D02D01579022D25
:1015300016D185684F000326BE40B54385605579B6
:101540004E00B540866835438560456801268E406B
:10155000B5434560456896798E40B6B235434560DF
:10156000C5684F000326BE40B543C560D5794E001F
:10157000B540C6683543C560491C1029BFD3F0BDCE
:10158000F0B5002300244D07ED0E02FA05F3CE104E
:1015900000F1200555F826504E07F70E0F26BE40E5
:1015A000B543CF1000F1200646F82750CE1000F1C9
:1015B000200555F8265045EA0304CE1000F1200519
:1015C00045F82640F0BD4183704701837047000015
:1015D00010B52DED068B00F0F5FF00BF1748006831
:1015E0000028FBD00121164800F0F3FA00BF134891
:1015F00000680128FBD00021114800F0EAFA1148E8
:10160000006801F0C1FE41EC1A0B9FED0F0B53EC8B
:10161000102B01F061FD41EC190B01F02BFD08EEE0
:10162000100A002007490860B3EE010A68EE008A3C
:10163000B0EE680ABDEC068B10BD000018024242F5
:1016400000080040580000200000000000408F40CB
:101650001CB50121102000F0A7F8202000900120E7
:101660008DF8040000208DF8060003208DF8050099
:1016700000208DF8070069460948FFF739FF402030
:10168000009000208DF8040069460548FFF730FF00
:101690000020044908600449C1F818021CBD00007C
:1016A00000100240940242420000424200BFFEE7A6
:1016B0001CB50121042000F077F84FF47070009001
:1016C00002208DF8040000208DF8060003208DF81C
:1016D000050000208DF8070069460C48FFF708FF59
:1016E000022206210948FFF74BFF02220721074883
:1016F000FFF746FF022208210448FFF741FF0222BC
:1017000009210248FFF73CFF1CBD00000008024011
:1017100000BFFEE77047000070B5002100230F22D4
:10172000C4781CB3174C246804F4E064C4F5E06486
:10173000C4F30721C1F10404E3B20A4144789C4098
:10174000E1B28478144021430C07210E0E4C057839
:101750006155047804F01F050124AC4005786D1133
:10176000AD0005F1E025C5F8004109E0047804F07A
:101770001F050124AC40054D0678761145F826403A
:1017800070BD00000CED00E000E400E080E100E04E
:1017900002490143024A1160704700000000FA0547
:1017A0000CED00E07047000029B1064A12680243C0
:1017B000044B1A6004E0034A12688243014B1A602A
:1017C000704700003038024029B1064A12680243CF
:1017D000044B1A6004E0034A12688243014B1A600A
:1017E000704700004038024029B1064A126802439F
:1017F000044B1A6004E0034A12688243014B1A60EA
:101800007047000044380240F0B500210022002457
:10181000022500260223324F3F6807F00C0121B158
:10182000042905D0082937D105E02E4F076036E09E
:101830002D4F076033E02A4F3F1F3F68C7F38056A4
:10184000274F3F1F3F6807F03F036EB1264FB7FB9E
:10185000F3F7DFF88CC0ACF1040CDCF800C0CCF37B
:10186000881C07FB0CF40CE01E4FB7FBF3F7DFF806
:1018700070C0ACF1040CDCF800C0CCF3881C07FB92
:101880000CF4174F3F1F3F68C7F301477F1C7D00D3
:10189000B4FBF5F7076002E0124F076000BF00BF1E
:1018A0000F4F3F6807F0F0010909104F7A5C076895
:1018B000D74047600A4F3F6807F4E051890A0B4F51
:1018C0007A5C4768D7408760054F3F6807F46041FE
:1018D000490B064F7A5C4768D740C760F0BD0000EF
:1018E000083802400024F40000127A0000000020B2
:1018F0007047000030B500228B071C0F0F2303FA3E
:1019000004F20B4B8C1053F824309343084C8D1089
:1019100044F8253023468C1053F824308C07240FCC
:1019200000FA04F42343024C8D1044F8253030BDF6
:10193000083801400CB50020019000903448006840
:1019400040F480303249086000BF3148006800F43C
:10195000003000900198401C0190009818B901983F
:10196000B0F5A04FF1D12A48006800F4003010B162
:101970000120009001E0002000900098012846D14D
:1019800023484030006840F08050214940310860D1
:101990002048006840F440401E4908601C48083058
:1019A00000681B49083108600846006840F40040A0
:1019B00008600846006840F4A05008601648091FF7
:1019C0000860081F006840F08070091F086000BFB1
:1019D0000F48006800F000700028F9D040F2057050
:1019E0000E4908600A480830006820F003000849E2
:1019F000083108600846006840F00200086000BF37
:101A000003480830006800F00C000828F8D10CBD2D
:101A1000003802400070004008544007003C02407B
:101A2000042808D14FF0E021096941F004014FF08A
:101A3000E022116107E04FF0E021096921F0040183
:101A40004FF0E022116170477047000010B5154853
:101A5000006840F47000134908601348006840F0C3
:101A600001001149086000200F49083108600E4844
:101A700000680E4908400C4908600D48091D0860BF
:101A8000081F006820F48020091F08600020064914
:101A90000C310860FFF74EFF4FF0006001498039BC
:101AA000086010BD88ED00E000380240FFFFF6FE40
:101AB0001030002410B56FF00400FFF7B1FF1520BF
:101AC0000349087045F208200249088010BD000053
:101AD000100000201200002010B505480068401CCE
:101AE000034908600121034800F070F810BD0000B0
:101AF000580000200008004010B524480068401C31
:101B000022490860084600683C281AD1204800682D
:101B1000401C1F49086000201C4908601C480068E0
:101B20003C280ED11B480068401C1A490860002060
:101B300017490860174800680C2802D10020154991
:101B400008601548006800EB80001449096801EB43
:101B50004000134908600F4800681249096888422C
:101B60000ED10B4800680E490968884208D1074821
:101B700000680D490968884202D101200B490860BC
:101B800001210B4800F022F810BD000028000020C1
:101B900024000020200000203C000020380000200D
:101BA000300000202C0000203400002040000020E5
:101BB0000020004021B1028842F08002028004E04F
:101BC00002884FF67F731A4002807047CA43028230
:101BD000704721B1028842F00102028004E00288CD
:101BE0004FF6FE731A40028070471AB183890B4387
:101BF000838102E083898B438381704770B5002421
:101C000000220023058C4FF6FE7635400584028CB9
:101C10008388048B4FF68F752C40B51E2C400D88A1
:101C20002C43751E2A408D892A434D882A43104D26
:101C3000A84202D00F4DA84213D14FF6F7752A40A3
:101C4000CD892A434FF6FB752A408D882A434FF6EB
:101C5000FF652B404FF6FF552B400D8A2B434D8AD5
:101C60002B43838004838D684563028470BD00002C
:101C700000000140000401400A460021018B4FF69C
:101C8000F7731940114301837047000070B50024B9
:101C900000220023058C4FF6EF7635400584028C38
:101CA0008388048B48F6FF752C404FF6FF452C4087
:101CB0000D884FF6FF7606EA05252C434FF6DF75B3
:101CC0002A408D8906EA05152A434D8806EA05153E
:101CD0002A43154DA84202D0144DA8421DD14FF6FB
:101CE0007F752A40CD894FF6FF7606EA05152A430F
:101CF0004FF6BF752A408D8806EA05152A434FF630
:101D0000FF352B404FF2FF752B400D8A06EA850503
:101D10002B434D8A06EA85052B43838004838D6817
:101D20008563028470BD0000000001400004014092
:101D30000A460021018B4FF2FF7319404FF6FF73E3
:101D400003EA0223194301837047000070B50024A1
:101D500000220023058C4FF6FF6635400584028C77
:101D60008388848B4FF68F752C404FF6FC752C4082
:101D70000D882C434FF6FF552A408D894FF6FF768C
:101D800006EA05252A434D8806EA05252A43154D0E
:101D9000A84202D0144DA8421DD14FF2FF752A402F
:101DA000CD894FF6FF7606EA05252A434FF6FF3523
:101DB0002A408D8806EA05252A434EF6FF752B40FA
:101DC0004DF6FF752B400D8A06EA05152B434D8A0B
:101DD00006EA05152B43838084838D68C5630284DE
:101DE00070BD000000000140000401400A460021CF
:101DF000818B4FF6F77319401143818370470000C0
:101E000070B5002200230024058C4EF6FF76354085
:101E10000584038C8488828B48F6FF752A404FF630
:101E2000FF452A400D884FF6FF7606EA05252A432E
:101E30004DF6FF752B408D8906EA05352B434D88FD
:101E400006EA05352B430A4DA84202D0094DA842A7
:101E500008D14BF6FF752C400D8A4FF6FF7606EA47
:101E600085152C43848082838D680564038470BD4E
:101E700000000140000401400A460021818B4FF21E
:101E8000FF7319404FF6FF7303EA0223194381835E
:101E900070474163704781637047C1637047016455
:101EA0007047000000220288184B98420ED0184B51
:101EB00098420BD0B0F1804F08D0164B984205D015
:101EC000154B984202D0154B984204D14FF68F73B0
:101ED0001A404B881A43124B984207D0114B984234
:101EE00004D04FF6FF431A400B891A4302804B6817
:101EF000C3620B880385054B984202D0044B98427D
:101F000001D18B7A03860123838270470000014050
:101F1000000401400004004000080040000C0040A4
:101F2000001000400014004010B540F22551024856
:101F300000F061F810BD00000010014010B540F243
:101F400025511B4800F057F878B3194800F00CF9F8
:101F5000C4B2184801780078401C164A1070164820
:101F6000445410460078022802D003281CD108E00F
:101F7000114840780D2803D000200E49087010BD8C
:101F800012E00D4880780A2803D000200949087023
:101F9000F5E70120094908700748007808490870EA
:101FA000002004490870EAE700BF00BFE7E700002F
:101FB00000440040510000205C000020520000203E
:101FC0005000002021B1828942F40052828104E055
:101FD00082894DF6FF731A408281704702460020C5
:101FE000B1F5007F00D100BF13880B400BB1012079
:101FF00000E00020704770B5024600240023002551
:10200000002040F66A16B14200D100BFC1F342156C
:1020100001F01F03012606FA03F3012D02D1968970
:10202000334006E0022D02D1168A334001E0968A41
:1020300033400C12012606FA04F41688344013B11A
:102040000CB1012000E0002070BDF0B50346002473
:1020500000260025002040F66A17B94200D100BFD3
:102060001846C1F3421401F01F06012707FA06F5CE
:10207000012C01D10C3004E0022C01D1103000E021
:1020800014301AB107682F43076002E00768AF43B6
:102090000760F0BD2DE9FF4705460E460024A14626
:1020A00000BFA046B08900B100BF2C8A24F4405480
:1020B000F08804432C82AC8941F20C608443B088E0
:1020C00031890843718908430443AC81AC8A24F404
:1020D0004074B0890443AC826846FFF795FB204802
:1020E000854202D01F48854202D1DDF80C9001E004
:1020F000DDF80890A88900F4004040B109EBC90060
:1021000000EB091031684900B0FBF1F707E009EB7B
:10211000C90000EB091031688900B0FBF1F76420B9
:10212000B7FBF0F004012009642101FB1078A889B5
:1021300000F4004040B1322000EBC800B0FBF1F0E9
:1021400000F00700044308E0322000EB081064218F
:10215000B0FBF1F000F00F0004432C81BDE8FF87D5
:10216000001001400014014001468888C0F30800B7
:102170007047C1F3080282807047000010B588B034
:10218000044601210846FFF70FFB01211020FFF74D
:102190002BFB072209212448FFF7F2F907220A2125
:1021A0002148FFF7EDF94FF4C060069002208DF84A
:1021B0001C008DF81D0000208DF81E0001208DF8F8
:1021C0001F0006A91848FFF793F902940020ADF804
:1021D0000C00ADF80E00ADF81000ADF814000C20A6
:1021E000ADF8120002A91148FFF754FF01210F4872
:1021F000FFF7E8FE012240F225510C48FFF725FFCA
:1022000025208DF8040003208DF805008DF80600C8
:1022100001208DF8070001A8FFF77EFA4FF4A060B7
:10222000FFF7B6FA08B010BD0000024000100140F0
:1022300010B588B0044601210846FFF7B5FA012120
:102240004804FFF7C1FA072202212448FFF798F952
:10225000072203212148FFF793F90C200690022062
:102260008DF81C008DF81D0000208DF81E00012047
:102270008DF81F0006A91948FFF73AF902940020CB
:10228000ADF80C00ADF80E00ADF81000ADF814007C
:102290000C20ADF8120002A91148FFF7FBFE012146
:1022A0000F48FFF78FFE012240F225510C48FFF73F
:1022B000CCFE26208DF8040003208DF805000220B6
:1022C0008DF8060001208DF8070001A8FFF724FA19
:1022D0004FF4A060FFF75CFA08B010BD00000240A8
:1022E0000044004000BFFEE703B40198410000989D
:1022F00050EAC12018BF04204A0D18BF40F0010069
:1023000040F2FF72B2EB515F08BF40F002000128BB
:1023100008BF052002B07047014600BF002070478B
:102320001CB501212020FFF73FFA4FF48070009088
:1023300001208DF8040000208DF8060003208DF8A0
:10234000050000208DF8070069460448FFF7D0F823
:102350004FF480710148FFF736F91CBD00140240AC
:102360000021104A128842434FF0E0235A610022B4
:102370009A611A46126942F001021A6100BF4FF0D9
:10238000E022116901F48032002AF8D04FF0E022F7
:10239000126922F001024FF0E0231A6100229A61D3
:1023A00070470000120000200021104A12784243BA
:1023B0004FF0E0235A6100229A611A46126942F0F6
:1023C00001021A6100BF4FF0E022116901F480326E
:1023D000002AF8D04FF0E022126922F001024FF0FB
:1023E000E0231A6100229A6170470000100000206B
:1023F0000EB501218803FFF7F7F900F0F3F800218B
:102400000846FFF777FA02210420FFF773FA032149
:102410000420FFF76FFA04210846FFF76BFA1D202E
:10242000019000208DF8080008208DF80900012097
:102430008DF80A0001A8FFF711F80F208DF80000B1
:102440008DF801008DF8020001208DF80300684628
:10245000FFF762F94FF4A060FFF79AF90EBD000094
:1024600070B504460D46A1B20548FFF782FE00BFD5
:1024700080210348FFF7B2FD0028F9D0204670BD47
:102480000010014001200A49086000200949086045
:102490000949086009490860094908600949086054
:1024A0000949086009490860094908607047000047
:1024B00014000020180000201C0000202C00002028
:1024C0003000002034000020380000203C000020B4
:1024D0004000002010B52DED048B4FF4FA70FFF78B
:1024E0003FFFFFF775F8B0EE408A18EE100A00F0D3
:1024F000B3FF41EC190B53EC192B29A0FDF7C8FED3
:102500002A4890ED000AB4EEC08AF1EE10FA31D2FA
:102510000020274908602749C1F8A8022649086019
:102520002649C1F8B8024FF47A712548FFF7B1FC8B
:1025300000212348FFF7AFFC00212148FFF7ADFC45
:102540004FF47A711E48FFF7AAFC4FF4FA70FFF7B8
:1025500007FF00211A48FFF79CFC00211848FFF7ED
:102560009AFC00211648FFF798FC00211448FFF759
:1025700096FC12E00D4890ED000AB4EEC08AF1EE30
:1025800010FA0ADB01200A4908600A49C1F8A802CA
:10259000094908600949C1F8B802BDEC048B10BDB7
:1025A00064697374616E3A25660D0A004400002068
:1025B000A482424200804242B402424200004242AF
:1025C0000004004010B50120044908600D20FFF709
:1025D000EBFE00200249C1F8940210BD9402424271
:1025E000000042421CB501210846FFF7DDF8012139
:1025F0001020FFF7D9F81D20009000208DF804006E
:1026000003208DF8050000208DF807006946044876
:10261000FEF76EFF69460348FEF76AFF1CBD000027
:1026200000000240001002401CB501212020FFF7ED
:10263000BBF801211020FFF7B7F84FF4CC40009011
:1026400001208DF8040000208DF8060003208DF88D
:10265000050000208DF8070069460948FEF748FF8D
:1026600069460848FEF744FF01200749086007490A
:10267000C1F8A802064908600649C1F8B8021CBDA5
:102680000014024000100240A482424200804242F4
:10269000B40242420000424200B5134800680228DA
:1026A00008D112480068012804D11148006800F0E0
:1026B00039FC18E00C480068022808D10B48006873
:1026C000022804D10B48006800F02CFC0BE00648FF
:1026D0000068022807D105480068032803D106488E
:1026E000006800F01FFC00BD140000201C0000204A
:1026F0002C0000203C0000203800002010B500F025
:1027000003F8002010BD0000FFF7D4F9FFF78CFF9D
:10271000FFF76EFE00F09CFBFFF702FEFEF798FF4E
:1027200000F03CFC4FF4E130FFF728FD4FF4165069
:10273000FFF77EFD052463E3FFF7CCFEFA4800783F
:102740000128F8D1642004FB00F5012C01DC0124F0
:1027500002E00A2C00DD0A24F4480178F4A0FDF719
:1027600097FD0020F0490870F0480078622874D086
:1027700014DC362872D008DCA0F13100052840D2E4
:10278000DFE800F016406E9DC800372867D0382873
:102790007ED039287DD0612833D15EE163380928A5
:1027A000EDD2DFE800F0FDFCFBFAF9F8F7F6F500F2
:1027B0004FF48071E048FEF708FF0020DF49086011
:1027C0000120DF49C1F8A802DE490860DE49C1F8EE
:1027D000B8022946DD48FFF75CFB0021DB48FFF724
:1027E0005AFB2946D948FFF758FB0021D748FFF785
:1027F00056FB1E20FFF7B4FD4FF48071CE48FEF764
:10280000E2FEF9E24FF48071CB48FEF7DEFE0120D4
:10281000CA4908600020CA49C1F8A8020120C94974
:102820000860C949C1F8B8020021C848FFF731FB68
:102830002946C648FFF72FFB0021C448FFF72DFBB0
:102840002946C248FFF72BFB1E20FFF789FD4FF4F6
:102850008071B948FEF7B7FECEE22AE183E0B5E029
:102860004FF48071B448FEF7B0FE0120B349086010
:10287000B349C1F8A8020020B24908600120B2495A
:10288000C1F8B8024FF47A71B048FFF702FB01E0DB
:10289000C5E0D3E00021AD48FFF7FDFA2946AB487B
:1028A000FFF7FBFA0021A948FFF7F9FA1E20FFF70E
:1028B00057FD4FF48071A048FEF785FE9CE24FF46F
:1028C00080719D48FEF781FE01209C4908609C496B
:1028D000C1F8A8029B49086000209B49C1F8B802D2
:1028E00029469A48FFF7D5FA00219848FFF7D3FA0E
:1028F0004FF47A719548FFF7D0FA00219348FFF71B
:10290000CEFA1E20FFF72CFD4FF480718A48FEF7A7
:102910005AFE71E24FF480718748FEF756FE01209F
:10292000864908608649C1F8A80286490860864938
:10293000C1F8B80200218548FFF7ABFA00218348AF
:10294000FFF7A9FA00218148FFF7A7FA00217F4885
:10295000FFF7A5FA1E20FFF703FD4FF480717648BC
:10296000FEF731FE48E24FF480717348FEF72DFE0A
:102970000120724908607249C1F8A80271490860D3
:102980007149C1F8B80229467048FFF782FA08E099
:1029900000E2CDE1BCE19CE158E114E1ECE0D7E0DC
:1029A000B2E000216948FFF776FA00216748FFF797
:1029B00074FA29466548FFF772FA1E20FFF7D0FC2B
:1029C0004FF480715C48FEF7FEFD15E24FF4807114
:1029D0005948FEF7FAFD0120584908605849C1F8E6
:1029E000A802584908605849C1F8B8020021574860
:1029F000FFF74FFA29465548FFF74DFA2946534845
:102A0000FFF74BFA00215148FFF749FA1E20FFF764
:102A1000A7FC4FF480714848FEF7D5FDECE14FF478
:102A200080714548FEF7D1FD641C1E20FFF798FC1D
:102A30004FF480714048FEF7C6FDDDE14FF4807130
:102A40003D48FEF7C2FD641E1E20FFF789FC4FF4CF
:102A500080713948FEF7B7FDCEE14FF480713648FA
:102A6000FEF7B3FD0120354908603549C1F8A802D9
:102A700000203449086001203349C1F8B802002120
:102A80003248FFF706FA4FF47A713048FFF703FA3D
:102A900000212E48FFF701FA29462C48FFF7FFF9DD
:102AA0001E20FFF75DFC4FF480712348FEF78BFD7D
:102AB000A2E14FF480712048FEF787FD01201F49F5
:102AC00008601F49C1F8A8021E49086000201E497D
:102AD000C1F8B80200211D48FFF7DBF929461B4861
:102AE000FFF7D9F900211948FFF7D7F94FF47A71A8
:102AF0001648FFF7D4F91E20FFF732FC4FF480711F
:102B00000D48FEF760FD77E14FF480710A48FEF74B
:102B10005CFD0A241E20FFF723FC4FF48071064859
:102B2000FEF751FD68E10000520000205000002037
:102B300025630D0A0000000000140240A4824242F6
:102B400000804242B402424200004242000400407F
:102B50004FF48071AB48FEF738FD0524B2EE040A4D
:102B6000A94880ED000A1E20FFF7FAFB4FF48071A0
:102B7000A448FEF728FD3FE14FF48071A148FEF71D
:102B800024FDA2480368A2480268A2480168A2A0E6
:102B9000FDF77EFBA748006801280BD1A648006816
:102BA000401CA549086008460068042802D102209C
:102BB000A04908601E20FFF7D3FB4FF480719148B5
:102BC000FEF701FD18E14FF480718E48FEF7FDFC21
:102BD0009848006801282ED19748006801280BD139
:102BE00096480068401C95490860084600680C2813
:102BF00021DD002008601EE08F48006802280BD10C
:102C00008F480068401C8E49086008460068052807
:102C100011DD002008600EE08748006803280AD113
:102C200088480068401C87490860084600680928F1
:102C300001DD0020086000F043F91E20FFF790FB43
:102C40004FF480716F48FEF7BEFCD5E04FF4807101
:102C50006C48FEF7BAFC7748006801282ED1764808
:102C6000006801280BD175480068401E7349086050
:102C700008460068002821DA0C2008601EE06E4833
:102C8000006802280BD16E480068401E6C4908603D
:102C900008460068002811DA052008600EE0664842
:102CA000006803280AD167480068401E654908602B
:102CB00008460068002801DA0920086000F000F9E1
:102CC0001E20FFF74DFB4FF480714E48FEF77BFC52
:102CD00092E04FF480714B48FEF777FC554800684E
:102CE00002280AD158480068401C57490860084625
:102CF0000068032801DD01200860FFF7CDFC1E20DD
:102D0000FFF72EFB4FF480713E48FEF75CFC73E04A
:102D10004FF480713B48FEF758FCFFF7B3FB1E20D1
:102D2000FFF71EFB4FF480713648FEF74CFC63E062
:102D30004FF480713348FEF748FC334890ED000AA9
:102D4000F2EE040A30EE200A80ED000A90ED000A4F
:102D5000DFED3E0AB4EEE00AF1EE10FA03DD9FED7E
:102D60003B0A80ED000A284890ED000AF2EE040AC2
:102D700080EE201ABDEEC10A10EE103A184600F09F
:102D8000D1F81E20FFF7ECFA4FF480711D48FEF7D2
:102D90001AFC31E04FF480711A48FEF716FC1A480D
:102DA00090ED000AF2EE040A30EE600A80ED000AAF
:102DB00090ED000AF2EE040AB4EEE00AF1EE10FA29
:102DC00003D2B2EE040A80ED000A0F4890ED000A2B
:102DD000F2EE040A80EE201ABDEEC10A10EE103A9F
:102DE000184600F09FF81E20FFF7BAFA4FF48071E2
:102DF0000448FEF7E8FB00BF00BF00F001F900BF88
:102E00009AE4000000140240440000202800002042
:102E100024000020200000206E6F772074696D650B
:102E20003A25642068202564206D696E2025642081
:102E30007300000014000020180000202C00002067
:102E40003C000020380000201C0000200000484208
:102E500000B585B0FEF72CFC00F084F87020ADF8CA
:102E600000000120ADF802000220ADF80C00694618
:102E70001248FEF7C3FE69461048FEF707FF694691
:102E80000E48FEF763FF69460C48FEF7B9FF0121C3
:102E90000A48FEF78FFE08210848FEF7EDFE0821DC
:102EA0000648FEF745FF08210448FEF79FFF08216A
:102EB0000248FEF7E1FF05B000BD0000000400403D
:102EC00000B513480068012808D11248006801289D
:102ED00004D11148006800F025F818E00C4800689B
:102EE000012808D10B480068022804D10B4800686B
:102EF00000F018F80BE006480068012807D10548E3
:102F00000068032803D10648006800F00BF800BDF4
:102F100014000020180000202C0000203C0000209D
:102F20003800002000F00101C9430A4A1160C0F3D3
:102F30004001C943084AC2F8A812C0F38001C9433E
:102F4000064A1160C0F3C001C943054AC2F8B8126D
:102F500070470000A482424200804242B4024242D2
:102F6000000042420EB501210220FEF72DFC4FF475
:102F70007A7001905320ADF800000020ADF80800F1
:102F8000ADF8020069460448FEF78CFF01210248B3
:102F9000FEF71FFE0EBD0000000400401FB501211A
:102FA0000420FEF711FC012002905320ADF804002C
:102FB0000020ADF80C00ADF8060001A90F48FEF79F
:102FC00071FF012211460D48FEF70FFE1E208DF8FD
:102FD000000000208DF8010001208DF802008DF81E
:102FE00003006846FEF798FB4FF4A060FEF7D0FBA5
:102FF00000210248FEF7EDFD1FBD00000008004063
:1030000010B50F480068012814D1002404E02146BF
:103010000C48FEF73EFF641CB4F57A7FF7DB4FF4F3
:103020007A7404E021460748FEF733FF641E002C43
:10303000F8DC03E000210348FEF72BFF10BD000081
:1030400040000020001C004010B500290AD008787C
:10305000002807D005487844FDF796FD002801D0E8
:10306000002010BD0248784410BD0000B2050000E9
:10307000AA05000021F00042A2F16052B2F5801FC3
:1030800001F0004328BFD2F17F6C0BD95FEA001C2E
:1030900043EAC20242EB507018BF704728BF20F0CD
:1030A00001007047B2F5801FBCBF184670474FEA59
:1030B000410C1CF5001F02D2084600F043BA70B55F
:1030C00000F075F900000089FFF7F6BF4FF00040EF
:1030D000A0F58000704700002DE9C04130B4DFF852
:1030E000A0C23CEA111418BF3CEA131400F0EC80B3
:1030F00081EA03051CEA111444EAD57418BF1CEADE
:10310000131500F0C780A4EB05044FF0004545EA15
:10311000C12145EAC32341EA505143EA525304F125
:103120007F74994204F500344FEAC0204FEAC2226E
:1031300008BF904200F09C804FEA13650FF24016E2
:10314000765D4FEA134506FB05F7C7F1807706FB6E
:1031500007F74FEAD737A7FB03687642C8F58038F0
:10316000A7FB06CE38BFA8F1010807FB08E64FF021
:10317000000EA6FB028CE6FB03CEDCF1000CCEF1C8
:10318000004E38BFAEF1010EA6FB0C584FF0000701
:103190004FF00005E6FB0E87A1FB08C6A0FB07CE9B
:1031A00016EB0E0645F10005E1FB076515F1E04E53
:1031B0007EBFA4F580345FEA46066D4116F18007B4
:1031C00045F100054FEA17274FEA066647EA05670B
:1031D000A6F1DE46B6F1805F4FEA15251FD93846C5
:1031E00024F0010C05EBC471BCF1FE6F01EB0C1176
:1031F00002D8F0BCBDE8008124425CBF01F5801E0E
:103200009EEAC47F02D4F0BCBDE80081244238D4D9
:10321000F0BCA1F1C041BDE8004100F016B94FEA91
:10322000D22242EA43524FEAD323A7FB02864FEA57
:10323000D02040EA415007FB03661EEA0E0F4FEA1A
:10324000D12105FB026658BFA6EB0056B6EB00562F
:103250004FEA520E4EEAC37E18EB0E0E56EB530E9B
:10326000BDD518EB02085E417F1C55F10005B6E79D
:103270004FF480154FF000074FF000064FF00008A4
:10328000ADE7F0BC4FF0000001F1C04101F000419A
:10329000BDE8008111EA0C1F0CEA131500D00CE008
:1032A00013EA0C1F00F025804FF00000F0BC81EA0B
:1032B000030101F00041BDE80081F0BCBDE8004120
:1032C00081EA030100F0C1B8F0BCBDE8004170B56F
:1032D00000F06DF8097EFC3E00F007B881EA0301BA
:1032E0004FF0000001F00041704781EA030100F057
:1032F000ACB8F0BCBDE800414FF000002149704778
:10330000FFFDFBF9F7F5F4F2F0EEEDEBE9E8E6E4AA
:10331000E3E1E0DEDDDBDAD8D7D5D4D3D1D0CFCD31
:10332000CCCBCAC8C7C6C5C4C2C1C0BFBEBDBCBB6A
:10333000BAB9B8B7B6B5B4B3B2B1B0AFAEADACAB65
:10334000AAA9A8A8A7A6A5A4A3A3A2A1A09F9F9E3F
:103350009D9C9C9B9A9999989797969595949393F1
:10336000929191908F8F8E8E8D8C8C8B8B8A898988
:10337000888887878685858484838382828181800B
:103380000000FF070000F87FB0FA80F310FA03F1A5
:103390000AD0C3F11D0303F580634FEA41504FEAA1
:1033A000035202EBD12170474FF0000070470EF13D
:1033B000020E2EF0030E5EF8046B364205D4012A8D
:1033C00043EB030515F5001F12D8012841EB010C52
:1033D0001CF5001F0CD80ED14FEAD17C15F5001F4B
:1033E0000CEB4C0C0CF1020C08BF4CEBD37C04E052
:1033F0004FF0080C01E04FEAD37C0CEB4C0526FAA9
:1034000005F606F00706B6F1040C06D20EEB860CA4
:10341000BDE870404CF0010C6047DFE80CF0090B90
:1034200002024FF000414FF00000A1F5002170BDF5
:1034300019461046012851EB010418BFD4F50014B9
:1034400084BF002001F0004170BD0808A0F5001104
:103450004FEA31017047000043004FEAD30C4FEAB6
:103460003C0C43401FBF40070CF1605113F0FE4F6E
:1034700070471CF0006F03D100200CF00041704732
:103480000CF0004343EA507010B540EACC0000F065
:103490000EF800BF000000924FEA0001FFF7D5BF11
:1034A0004FF000414FF00000A1F5002170470EF1F0
:1034B000020E2EF0030E5EF8044B244204D44FEAB1
:1034C0004102B2F17F4F11D84FEA4003B3F17F4F71
:1034D0000CD80ED14FEAD07CB2F17F4F0CEB4C0CE4
:1034E0000CF1020C08BF4CEBD17C04E04FF0080C4F
:1034F00001E04FEAD17C0CEB4C0324FA03F404F016
:103500000704B4F1040C06D20EEB840CBDE81040A5
:103510004CF0010C6047DFE80CF0070802024FF0A6
:103520000040A0F5800010BD0846420018BFD2F14F
:10353000807288BF00F0004010BD4FF04070E1EE97
:10354000100A7047FF2141EAD050C0057047FDF7CF
:1035500079B8000002400000000000A00000000058
:1035600005400000000000C8000000000C40000002
:103570000000409C00000000194000000020BCBE7C
:103580000000000034400000BFC91B8E0000000492
:10359000B5400000504BCFD06607E2CF01000000DD
:1035A0006C4100003E8251AADFEEA734010000000A
:1035B000D9420000DCB5A0E23A301F97FFFFFFFFC1
:1035C000B4450000FD25A0C8E9A3C14FFFFFFFFFE0
:1035D000FF3F00000000008000000000FF3F0000EF
:1035E00000000080000000002436000800000020D9
:1035F0005C000000C4010008803600085C00002068
:103600003C070000E00100081C000000430000002F
:10361000F8FFFFFF0C0000000E0000000F0000008C
:103620002E00000000000000010203040102030458
:10363000060708090000000001000000000000006B
:1036400000000000080000001E0000000000000054
:10365000000000000000000000000000000000006A
:1036600000000000000000000000204100000000F9
:10367000000000000000000000000000000000004A
:040000050800018965
:00000001FF
